:1000000012C021C00FC11FC01EC01DC01CC084C0B3
:1000100098C019C018C017C016C015C014C013C0AE
:1000200012C011C010C011241FBECFE5D2E0DEBF48
:10003000CDBF20E0A0E6B0E001C01D92A436B2071B
:10004000E1F70ED062C1DCCFBD9AD998CB9BFECF31
:1000500087EA91E60197F1F700C00000BD98089586
:1000600087E08BBB86E08ABB8FE488BB90E297BBBE
:1000700088E083BD83E682BD80E38BBF81E081BBE6
:1000800088EB8DB980EF8EB985B7877E85BFE7EAAB
:10009000F1E63197F1F700C0000017BA9ABF7894E3
:1000A00085B7806285BF889585B78F7D85BFF8CF7E
:1000B0008111CACFD99A0895823081F028F488231B
:1000C00041F0813049F00895833089F08430C1F0E7
:1000D0000895D99B20C0B8CF80E0EACFBD9A87EAC7
:1000E00091E60197F1F700C00000BD980895BC9A11
:1000F00089EF90E00197F1F700C00000BC980895E7
:100100008BB390E080959095869581708093610087
:1001100081E08093600008951F920F920FB60F92B6
:1001200011248F938EB110926300D09889B388EF19
:100130008DB980EF8EB98F910F900FBE0F901F90E9
:1001400018951F920F920FB60F9211242F933F9381
:100150004F935F936F937F938F939F93AF93BF93CF
:10016000EF93FF93809163008230C9F128F48823D4
:1001700061F08130E1F045C08430B9F188F085301C
:1001800009F03FC08FB198DF35C08FB1882321F0CF
:100190008FB18695803139F4789B2CC081E02BC0DB
:1001A0008FB1882321F0D09888EA8DB916C080914C
:1001B0006000882361F0809160008150809360002E
:1001C000E0916000F0E0EF59FF4F808101C08FEFB8
:1001D0008FB982E080936300D09A80E711C083E0FA
:1001E00080936300D0981FB80AC085E080936300B5
:1001F000D098F3CF84E0809363001FB8D09A8EE745
:100200008EB9FF91EF91BF91AF919F918F917F91A7
:100210006F915F914F913F912F910F900FBE0F9073
:100220001F9018951F920F920FB60F9211242F93C3
:100230003F934F935F936F937F938F939F93AF936E
:10024000BF93EF93FF938BB78F7C8BBFB59904C09F
:10025000D99902C0BD9A3EC0B69912C08BB38270C4
:1002600027DF83EC99E00197F1F700C00000B69B0F
:10027000FECF83EC99E00197F1F700C0000031C098
:10028000B1990EC0BD9A83EC99E00197F1F700C0D7
:100290000000B19BFECF83EE97E50197F1F71EC0FA
:1002A000B09911C0BC9A89EF90E00197F1F700C0B6
:1002B0000000BC9883EC99E00197F1F700C00000C2
:1002C000B09BFECFD6CFCB990CC0D9990AC0BD9AAE
:1002D000CB9BFECF87EA91E60197F1F700C00000C3
:1002E000BD988BB780638BBFFF91EF91BF91AF91AA
:1002F0009F918F917F916F915F914F913F912F913E
:0E0300000F900FBE0F901F901895F894FFCF2E
:00000001FF
